S017000057415348494E475F4D414348494E452E73726563A8
S113000045C0000062C0000060C000005EC0000087
S11300105CC000005AC0000058C0000056C0000078
S113002054C0000052C0000050C000004EC0000088
S11300304CC000004AC0000048C0000046C0000098
S11300400C941D0C42C0000040C000003EC00000E3
S11300503CC000003AC0000038C0000036C00000B8
S113006034C0000032C0000030C000002EC00000C8
S11300702CC000002AC0000028C0000026C00000D8
S113008024C0000022C0000020C0000011241FBEB4
S1130090CFEFD0E1DEBFCDBF12E0A0E0B1E0E4E7F6
S11300A0F4E200E00BBF02C007900D92A436B10742
S11300B0D9F722E0A4E6B2E001C01D92AC3BB2073E
S11300C0E1F70E941F0F0C9438129ACF8FEF8ABB6E
S11300D081B3837081BB089580B384709091690269
S11300E0911111C0882379F02FEF8DEE92E0215009
S11300F080409040E1F700C0000081E080936902F5
S113010080E090E00895913081F4811111C0109243
S113011069022FEF86E791E0215080409040E1F79B
S113012000C0000081E090E0089580E090E0089530
S113013080E090E0089580B38870909168029111F6
S113014011C0882379F02FEF8DEE92E0215080408A
S11301509040E1F700C0000081E08093680280E0F5
S113016090E00895913081F4811111C010926802D9
S11301702FEF86E791E0215080409040E1F700C0E6
S1130180000081E090E0089580E090E0089580E030
S113019090E0089580B3807190916702911111C02D
S11301A0882379F02FEF8DEE92E02150804090402B
S11301B0E1F700C0000081E08093670280E090E0F6
S11301C00895913081F4811111C0109267022FEFCC
S11301D086E791E0215080409040E1F700C00000A4
S11301E081E090E0089580E090E0089580E090E060
S11301F0089580B3807290916602911111C0882392
S113020079F02FEF8DEE92E0215080409040E1F79D
S113021000C0000081E08093660280E090E00895D1
S1130220913081F4811111C0109266022FEF86E79C
S113023091E0215080409040E1F700C0000081E04F
S113024090E0089580E090E0089580E090E00895C3
S113025080B3807490916502911111C0882379F064
S11302602FEF8DEE92E0215080409040E1F700C0E6
S1130270000081E08093650280E090E00895913071
S113028081F4811111C0109265022FEF86E791E08D
S1130290215080409040E1F700C0000081E090E0F0
S11302A0089580E090E0089580E090E0089580B3A0
S11302B0807890916402911111C0882379F02FEF16
S11302C08DEE92E0215080409040E1F700C00000A4
S11302D081E08093640280E090E00895913081F49D
S11302E0811111C0109264022FEF86E791E0215032
S11302F080409040E1F700C0000081E090E0089564
S113030080E090E0089580E090E0089587B38062F3
S113031087BB80E48FBD8AE08EBD10927A001BBC3F
S11303201ABC08958091700290917102892B69F032
S11303308091800290918102883C910534F0109262
S11303407102109270021BBC1ABC089581E090E007
S11303509093710280937002109281021092800235
S11303608AE892E09BBD8ABD0895809172029091C3
S11303707302892B99F18091840290918502843FC4
S1130380914084F1109285021092840281E0909150
S11303906B02911180E080936B028823E1F08091DD
S11303A08202909183028D379105E4F010928302CA
S11303B01092820281E090916A02911180E0809310
S11303C06A02882329F08AE791E09BBD8ABD0895DB
S11303D01BBC1ABC08951BBC1ABC089510926B0276
S11303E010926A02089582B1856282B9ABE8B0E0E6
S11303F08C9181608C93EAE8F0E08081886080834E
S11304008C9188608C9380818360808310928300B8
S113041010928200089580917E0290917F02823032
S1130420910509F005C220917802309179022130BA
S1130430310509F0FDC18091040190910501181660
S113044019060CF099C120917402309175021216AC
S113045013060CF091C140918A0250918B025523EE
S1130460ECF040918A0250918B0248175907B4F47A
S113047010928300109282008091040190910501F2
S1130480029720918A0230918B02281739070CF0C9
S1130490DBC11092870210928602089540918A026D
S11304A050918B0248175907E4F14091760250911C
S11304B07702480F591F60918A0270918B0264176A
S11304C075077CF58091860290918702813D974063
S11304D00CF4BAC1109287021092860281E09091C6
S11304E06D02911180E080936D02882369F083B1DD
S11304F08B7F83B983B1816083B988E790E090935F
S1130500830080938200089583B18E7F83B983B181
S1130510846083B988E790E090938300809382009D
S113052008956091760270917702FC01E60FF71F3F
S113053040918A0250918B024E175F078CF0AC01F8
S1130540440F551F460F571FE0918A02F0918B020A
S1130550E417F5072CF4109283001092820008959A
S1130560AC01440F551F460F571FE0918A02F091CA
S11305708B02E417F5077CF1AC01440F551F480FBB
S1130580591F460F571FE0918A02F0918B02E4171E
S1130590F5070CF5109283001092820080910401FB
S11305A0909105019C01220F331F280F391F809160
S11305B0760290917702820F931F029720918A020C
S11305C030918B02281739070CF03EC11092870234
S11305D0109286020895AC01440F551F480F591F0D
S11305E0460F571FE0918A02F0918B02E417F5073A
S11305F0CCF1A0918A02B0918B02F901E40FF51FAE
S1130600AE17BF077CF58091860290918702813DE9
S113061097400CF419C1109287021092860281E06F
S113062090916C02911180E080936C02882369F0B0
S113063083B18B7F83B983B1816083B984E690E011
S11306409093830080938200089583B18E7F83B951
S113065083B1846083B984E690E0909383008093AF
S113066082000895420F531FE0918A02F0918B0299
S1130670E417F507ACF0AC01440F551F440F551FA8
S1130680460F571F420F531FE0918A02F0918B02CD
S1130690E417F5072CF41092830010928200089559
S11306A0880F991F880F991F860F971F820F931F1A
S11306B020918A0230918B02281739070CF441C02B
S11306C02091020130910301280F391F40918A02C1
S11306D050918B0242175307A4F580910601909123
S11306E007018130910569F483B18B7F83B983B1AC
S11306F0816083B984E690E09093830080938200C4
S113070008958230910569F483B18B7F83B983B1F5
S1130710816083B98FEA90E0909383008093820094
S11307200895039709F090C083B18B7F83B983B197
S1130730816083B98AEF90E0909383008093820074
S113074008952091020130910301820F931F20919B
S11307508A0230918B02281739070CF475C0109265
S113076087021092860210926D0210926C0210920F
S1130770830010928200089580918A0290918B02E6
S11307809923F4F120918A0230918B028091020125
S113079090910301281739079CF5809106019091E7
S11307A007018130910569F483B18B7F83B983B1EB
S11307B0816083B984E690E0909383008093820003
S11307C008958230910569F483B18B7F83B983B135
S11307D0816083B98FEA90E09093830080938200D4
S11307E00895039789F583B18B7F83B983B18160C1
S11307F083B98AEF90E090938300809382000895F8
S113080020918A0230918B02809102019091030120
S113081028173907CCF010928702109286021092A2
S11308206D0210926C02109283001092820008955F
S1130830029751F48091780290917902029721F401
S1130840109283001092820008959FEF94BB87B3A7
S11308508E6187BB95BB089580916E0290916F0263
S11308608130910579F01CF4892B39F019C082305C
S1130870910569F0039781F013C082E088BB8FEF84
S113088085BB0EC084E088BB8FEF85BB09C088E0C0
S113089088BB8FEF85BB04C080E188BB8FEF85BB2D
S11308A080916E0290916F020196837090789923E3
S11308B024F401978C6F9F6F019690936F0280933D
S11308C06E020895CF93DF93CDB7DEB72A970FB6A4
S11308D0F894DEBF0FBECDBFAC019AE0E8E0F1E0D2
S11308E0DE01119601900D929A95E1F720916E0226
S11308F030916F0221303105E9F01CF4232B49F0CB
S11309005BC02230310561F12330310509F43FC069
S113091053C082E088BBCA016AE070E00E94360FCF
S1130920E1E0F0E0EC0FFD1FE80FF91F80818095F6
S113093085BB42C084E088BBCA016AE070E00E94C3
S1130940360FCB0166E070E00E94360FE1E0F0E084
S1130950EC0FFD1FE80FF91F8081809585BB2CC02B
S113096088E088BBCA016CE370E00E94360FCB01BB
S11309706AE070E00E94360FE1E0F0E0EC0FFD1F4A
S1130980E80FF91F80818068809585BB15C080E1E0
S113099088BBCA0168E572E00E94360FCB0166E0AD
S11309A070E00E94360FE1E0F0E0EC0FFD1FE80F6D
S11309B0F91F8081809585BB80916E0290916F02B2
S11309C0019683709078992324F401978C6F9F6F1C
S11309D0019690936F0280936E022A960FB6F89454
S11309E0DEBF0FBECDBFDF91CF91089580916E021F
S11309F090916F028130910579F01CF4892B39F0C4
S1130A0019C08230910569F0039781F013C082E028
S1130A1088BB80EC85BB0EC084E088BB80EC85BBC2
S1130A2009C088E088BB80EC85BB04C080E188BB3A
S1130A3080EC85BB80916E0290916F020196837069
S1130A409078992324F401978C6F9F6F019690936B
S1130A506F0280936E02089580916E0290916F02EE
S1130A608130910579F01CF4892B39F019C082305A
S1130A70910569F0039781F013C082E088BB80EF91
S1130A8085BB0EC084E088BB86EF85BB09C088E0C7
S1130A9088BB86EF85BB04C080E188BB86EC85BB40
S1130AA080916E0290916F020196837090789923E1
S1130AB024F401978C6F9F6F019690936F0280933B
S1130AC06E02089580917E0290917F02823091059A
S1130AD009F068C020917802309179022130310503
S1130AE009F060C02091040130910501121613062B
S1130AF00CF03EC040917402509175021416150614
S1130B00BCF560918A0270918B027723D4F08091B6
S1130B10760290917702F901EE0FFF1FEE0FFF1F8F
S1130B208E0F9F1F840F951FE0910201F091030126
S1130B308E0F9F1F6817790724F4861B970BC2CE6C
S1130B400895220F331F220F331F80917602909154
S1130B507702280F391F240F351F809102019091CD
S1130B600301280F391F621773072CF175CF0895FD
S1130B7020918A0230918B0233235CF08091020130
S1130B80909103012817390724F4821B930B9ACE02
S1130B9008958091020190910301281739075CF0B0
S1130BA05BCF0895029739F480917802909179028D
S1130BB0029709F41BCF089580937000089584EA86
S1130BC080937400809174008823E4F708958093DF
S1130BD0730084E880937400809174008823E4F7A0
S1130BE0089584E9809374000895CF93DF93D82FF8
S1130BF0C62FE5DF8D2FEBDF8C2FE9DFF2DFDF91EE
S1130C00CF9108951F93CF93DF9300D000D0CDB739
S1130C10DEB7282F207F30E1839FC0011124922F5B
S1130C209D60998329602A83982F9D609B838960A6
S1130C308C8310E00AC0E1E0F0E0EC0FFD1FE10F4F
S1130C40F11D60818EE4D1DF1F5F1430A0F30F909B
S1130C500F900F900F90DF91CF911F9108951F93E4
S1130C60CF93DF9300D000D0CDB7DEB7282F207FFD
S1130C7030E1839FC0011124922F9C6099832860E6
S1130C802A83982F9C609B8388608C8310E00AC021
S1130C90E1E0F0E0EC0FFD1FE10FF11D60818EE457
S1130CA0A4DF1F5F1430A0F30F900F900F900F90EC
S1130CB0DF91CF911F91089580E197E27DDF2FEFBF
S1130CC080E792E0215080409040E1F700C00000AE
S1130CD083E3C5DF82E3C3DF88E2C1DF8CE0BFDFEB
S1130CE086E0BDDF81E0BBDF8FE39CE90197F1F78C
S1130CF000C0000008950F931F93CF938C01C0E0B0
S1130D0002C080DFCF5FF801EC0FF11D80818111FB
S1130D10F8CFCF911F910F9108956F70817090E477
S1130D20899F600D1124862F805899CF0895CF9301
S1130D30DF93EA01F2DFCE01DEDFDF91CF91089588
S1130D40CF93DF9380917E0290917F02009769F5A3
S1130D5080918E0290918F02853691050CF48FC498
S1130D6010928F0210928E0281E1E2E1F1E0A0E99B
S1130D70B2E001900D928A95E1F740E952E060E01B
S1130D8070E080E090E0D3DF81E1E3E2F1E0A0E90C
S1130D90B2E001900D928A95E1F740E952E060E0FB
S1130DA070E081E090E0C3DF6AC48130910599F579
S1130DB020917C0230917D02232B69F580918E0273
S1130DC090918F02853691050CF459C410928F02CC
S1130DD010928E0281E1E2E1F1E0A0E9B2E001903B
S1130DE00D928A95E1F740E952E060E070E080E01E
S1130DF090E09DDF81E1E4E3F1E0A0E9B2E001905D
S1130E000D928A95E1F740E952E060E070E081E0FC
S1130E1090E08DDF34C48130910509F045C0209104
S1130E207C0230917D022130310509F03DC02091D2
S1130E307A0230917B02232BB9F580918E02909136
S1130E408F02853691050CF41AC410928F02109209
S1130E508E02C0E9D2E081E1E5E4F1E0DE01019037
S1130E600D928A95E1F7AE0160E070E080E090E0D9
S1130E705EDF809177028F93809176028F9386E56F
S1130E8091E09F938F93DF93CF930E945D0FAE0108
S1130E9060E070E081E090E04ADF0F900F900F90E7
S1130EA00F900F900F90EBC38130910509F045C06E
S1130EB020917C0230917D022130310509F03DC042
S1130EC020917A0230917B0221303105B1F5809175
S1130ED08E0290918F02853691050CF4D0C3109246
S1130EE08F0210928E02C0E9D2E081E1E5E4F1E0E4
S1130EF0DE0101900D928A95E1F7AE0160E070E0A9
S1130F0080E090E014DF809175028F9380917402E9
S1130F108F9388E691E09F938F93DF93CF93CDD700
S1130F20AE0160E070E081E090E001DF0F900F908F
S1130F300F900F900F900F90A2C38130910509F08C
S1130F4051C020917C0230917D022130310509F09D
S1130F5049C020917A0230917B022230310509F098
S1130F6041C080918E0290918F02853691050CF4D8
S1130F7086C310928F0210928E0281E1E5E4F1E0C3
S1130F80A0E9B2E001900D928A95E1F740E952E0C0
S1130F9060E070E080E090E0CADE8091060190910C
S1130FA007018230910571F08330910599F0019722
S1130FB009F065C34AE751E060E070E081E090E049
S1130FC0B6DE5DC34BE851E060E070E081E090E0A4
S1130FD0AEDE55C34CE951E060E070E081E090E0A2
S1130FE0A6DE4DC38230910509F016C32091780224
S1130FF0309179022130310509F00EC3809104014A
S113100090910501181619060CF058C2209174022B
S113101030917502121613060CF050C240918A02E8
S113102050918B025523A4F140918A0250918B0276
S1131030481759076CF580918E0290918F0285367E
S113104091050CF41CC310928F0210928E0281E160
S1131050EDEAF1E0A0E9B2E001900D928A95E1F7A2
S113106040E952E060E070E080E090E060DE81E121
S1131070EEEBF1E0A0E9B2E001900D928A95E1F780
S113108040E952E060E070E081E090E050DEF7C2B9
S113109040918A0250918B0248175907D4F140912C
S11310A0760250917702480F591F60918A0270911D
S11310B08B02641775076CF580918E0290918F02F4
S11310C0853691050CF4DBC210928F0210928E02C9
S11310D081E1EDEAF1E0A0E9B2E001900D928A9598
S11310E0E1F740E952E060E070E080E090E01FDE6C
S11310F081E1EFECF1E0A0E9B2E001900D928A9574
S1131100E1F740E952E060E070E081E090E00FDE5A
S1131110B6C26091760270917702FC01E60FF71F68
S113112040918A0250918B024E175F07CCF1AC01BB
S1131130440F551F460F571FE0918A02F0918B020E
S1131140E417F5076CF580918E0290918F02853635
S113115091050CF494C210928F0210928E0281E1D8
S1131160EDEAF1E0A0E9B2E001900D928A95E1F791
S113117040E952E060E070E080E090E0D8DD81E199
S1131180E0EEF1E0A0E9B2E001900D928A95E1F77A
S113119040E952E060E070E081E090E0C8DD6FC2B9
S11311A0AC01440F551F460F571FE0918A02F0917E
S11311B08B02E417F507DCF1AC01440F551F480F0F
S11311C0591F460F571FE0918A02F0918B02E417D2
S11311D0F5076CF580918E0290918F02853691050A
S11311E00CF44DC210928F0210928E0281E1EDEA4E
S11311F0F1E0A0E9B2E001900D928A95E1F740E9AF
S113120052E060E070E080E090E091DD81E1E0EEAA
S1131210F1E0A0E9B2E001900D928A95E1F740E98E
S113122052E060E070E081E090E081DD28C2AC0132
S1131230440F551F480F591F460F571FE0918A024C
S1131240F0918B02E417F507BCF1A0918A02B091EA
S11312508B02F901E40FF51FAE17BF076CF58091FF
S11312608E0290918F02853691050CF408C210927B
S11312708F0210928E0281E1EDEAF1E0A0E9B2E082
S113128001900D928A95E1F740E952E060E070E048
S113129080E090E04CDD85E1E1EFF1E0A0E9B2E02F
S11312A001900D928A95E1F740E952E060E070E028
S11312B081E090E03CDDE3C1420F531FE0918A02DC
S11312C0F0918B02E417F5070CF43DC0AC01440F18
S11312D0551F440F551F460F571F420F531FE091D0
S11312E08A02F0918B02E417F5076CF580918E0267
S11312F090918F02853691050CF4C1C110928F0232
S113130010928E0281E1EDEAF1E0A0E9B2E00190F1
S11313100D928A95E1F740E952E060E070E080E0E8
S113132090E005DD86E1E6E0F2E0A0E9B2E00190BC
S11313300D928A95E1F740E952E060E070E081E0C7
S113134090E0F5DC9CC1880F991F880F991F860FC8
S1131350971F820F931F20918A0230918B022817C6
S113136039070CF442C02091020130910301280F87
S1131370391F40918A0250918B0242175307ACF5F2
S113138010928502109284021092830210928202BB
S113139080918E0290918F02853691050CF46FC175
S11313A010928F0210928E0281E1EDEAF1E0A0E941
S11313B0B2E001900D928A95E1F740E952E060E0D5
S11313C070E080E090E0B3DC81E1ECE1F2E0A0E9E0
S11313D0B2E001900D928A95E1F740E952E060E0B5
S11313E070E081E090E0A3DC4AC1209102013091D9
S11313F00301820F931F20918A0230918B022817D8
S113140039070CF440C02091000130910101280FEC
S1131410391F40918A0250918B02421753079CF561
S113142081E090E0909373028093720280918E0227
S113143090918F02853691050CF421C110928F0290
S113144010928E0283E1EDE2F2E0A0E9B2E00190B5
S11314500D928A95E1F740E952E060E070E080E0A7
S113146090E065DC81E1E3E2F1E0A0E9B2E0019023
S11314700D928A95E1F740E952E060E070E081E086
S113148090E055DCFCC02091000130910101820FF5
S1131490931F20918A0230918B02281739070CF48C
S11314A0EEC0109273021092720210927F02109298
S11314B07E02D2D91BBC1ABC1BBAE1C080918A023D
S11314C090918B0299230CF440C020918A023091B0
S11314D08B02809102019091030128173907ACF522
S11314E0109285021092840210928302109282025A
S11314F080918E0290918F02853691050CF4BFC0C5
S113150010928F0210928E0281E1EDEAF1E0A0E9DF
S1131510B2E001900D928A95E1F740E952E060E073
S113152070E080E090E003DC81E1ECE1F2E0A0E92E
S1131530B2E001900D928A95E1F740E952E060E053
S113154070E081E090E0F3DB9AC020918A02309150
S11315508B028091020190910301281739070CF442
S113156040C02091000130910101280F391F4091A2
S11315708A0250918B02421753079CF581E090E058
S1131580909373028093720280918E0290918F02E5
S1131590853691050CF473C010928F0210928E025E
S11315A081E1E0E4F2E0A0E9B2E001900D928A95D5
S11315B0E1F740E952E060E070E080E090E0B7DB02
S11315C081E1E3E2F1E0A0E9B2E001900D928A95B5
S11315D0E1F740E952E060E070E081E090E0A7DBF1
S11315E04EC02091000130910101820F931F209180
S11315F08A0230918B02281739070CF440C01092EC
S113160073021092720210927F0210927E0224D909
S11316101BBC1ABC1BBA33C0029789F580917802AF
S113162090917902029759F580918E0290918F02E0
S11316308536910524F110928F0210928E0281E179
S1131640E2E1F1E0A0E9B2E001900D928A95E1F7C0
S113165040E952E060E070E080E090E068DB83E124
S1131660E1E5F2E0A0E9B2E001900D928A95E1F79C
S113167040E952E060E070E081E090E058DBDF9107
S1131680CF91089580917E0290917F02029709F094
S1131690D3C08091780290917902019709F0CCC06F
S11316A08091040190910501181619060CF0A2C04E
S11316B06091740270917502161617060CF09AC0A8
S11316C040918A0250918B02552334F048175907F0
S11316D01CF481E08BBB08954817590764F02091EE
S11316E0760230917702280F391F421753071CF4F2
S11316F088E08BBB0895E0917602F09177029C011B
S11317002E0F3F1F421753075CF09C01220F331F1B
S11317102E0F3F1F421753071CF484E08BBB089520
S11317209C01220F331F2E0F3F1F421753076CF0EB
S11317309C01220F331F280F391F2E0F3F1F421702
S113174053071CF481E08BBB08959C01220F331FC7
S1131750280F391F2E0F3F1F421753074CF0DB0190
S1131760A20FB31F4A175B071CF480E28BBB0895DA
S1131770260F371F421753077CF09C01220F331F9B
S1131780220F331F2E0F3F1F260F371F42175307F9
S11317901CF484E08BBB08959C01220F331F220F9D
S11317A0331FCF01820F931F860F971F48175907C6
S11317B064F02091020130910301280F391F421770
S11317C053071CF480E88BBB0895209102013091EB
S11317D00301820F931F4817590774F120910001E8
S11317E030910101820F931F481759072CF588EA9D
S11317F08BBB089580918A0290918B02992354F0B7
S11318002091020130910301821793071CF480E8B0
S11318108BBB089520910201309103018217930735
S11318205CF04091000150910101240F351F821793
S1131830930714F488EA8BBB08951F920F920FB696
S11318400F9211240BB60F922F933F934F935F93F4
S11318506F937F938F939F93AF93BF93EF93FF9374
S113186080918C0290918D02019690938D028093C9
S11318708C0280918E0290918F02019690938F0238
S113188080938E02809188029091890201969093B0
S11318908902809388028091860290918702019642
S11318A090938702809386028091800290918102B6
S11318B0019690938102809380028091840290919A
S11318C0850201969093850280938402809182021E
S11318D09091830201969093830280938202809177
S11318E08C0290918D02883E93406CF010928D0290
S11318F010928C0280918A0290918B0201969093AF
S11319008B0280938A02DED8FF91EF91BF91AF9151
S11319109F918F917F916F915F914F913F912F9103
S11319200F900BBE0F900FBE0F901F90189586E07E
S113193082BF83B7846083BF87B7816087BF089500
S113194080917E0290917F02009701F50E946C00C5
S1131950892B09F473C20E94A60181E090E0909360
S11319607F0280937E0210927D0210927C0210927C
S1131970770210927602109275021092740290937C
S11319800701809306010C942C040895813091057D
S113199009F0DEC180917C0290917D02009709F0EC
S11319A075C00E946C00892B49F00E94A601109218
S11319B07F0210927E020C942C0408950E949B00D6
S11319C0892B19F00C94A60108950E94CA00892B52
S11319D039F10E94A60182E090E090937F02809307
S11319E07E0221E030E03093790220937802109255
S11319F08D0210928C0210928B0210928A022EE1B8
S1131A0030E030937702209376022FE030E0309379
S1131A107502209374029093070180930601089540
S1131A200E94F900892B69F00E94A60181E090E0F0
S1131A3090937D0280937C0210927B0210927A0232
S1131A4008950E942801892B69F00E94A60181E073
S1131A5090E090937D0280937C0290937B0280932C
S1131A607A0208950E945701892B09F4E7C10E9464
S1131A70A60181E090E090937D0280937C0282E055
S1131A8090E090937B0280937A02089581309105CF
S1131A9009F070C020917A0230917B02232B09F067
S1131AA069C00E946C00892B69F00E94A601109203
S1131AB07F0210927E0210927D0210927C020C949E
S1131AC02C0408950E949B00892B39F00E94A601E2
S1131AD010927D0210927C0208950E94CA00892B04
S1131AE0B9F00E94A60182E090E090937F02809377
S1131AF07E0281E090E090937902809378021092C4
S1131B008D0210928C0210928B0210928A02089518
S1131B100E94F900892B99F00E94A6018091760217
S1131B20909177020A969093770280937602C397F6
S1131B300CF484C1109277021092760208950E94E8
S1131B402801892B49F00E94A60181E090E090933E
S1131B507B0280937A0208950E945701892B09F42D
S1131B606DC10E94A60182E090E090937B02809375
S1131B707A0208958130910509F073C020917A02A8
S1131B8030917B022130310509F06BC00E946C005A
S1131B90892B89F00E94A60110927F0210927E0286
S1131BA010927D0210927C0210927B0210927A02B3
S1131BB00C942C0408950E949B00892B39F00E94F8
S1131BC0A60110927D0210927C0208950E94CA0020
S1131BD0892BB9F00E94A60182E090E090937F02E5
S1131BE080937E0281E090E0909379028093780262
S1131BF010928D0210928C0210928B0210928A0223
S1131C0008950E94F900892B39F00E94A6011092D0
S1131C107B0210927A0208950E942801892B99F080
S1131C200E94A6018091740290917502059690938A
S1131C307502809374024F970CF400C110927502E0
S1131C401092740208950E945701892B09F4F6C07A
S1131C500E94A60182E090E090937B0280937A0236
S1131C600895019709F0EAC080917A0290917B026D
S1131C70029709F0E3C00E946C00892B89F00E944E
S1131C80A60110927F0210927E0210927D021092A1
S1131C907C0210927B0210927A020C942C04089518
S1131CA00E949B00892B39F00E94A60110927D02AC
S1131CB010927C0208950E94CA00892BB9F00E94F8
S1131CC0A60182E090E090937F0280937E0281E0FF
S1131CD090E0909379028093780210928D02109292
S1131CE08C0210928B0210928A0208950E94F900CD
S1131CF0892B39F00E94A60110927B0210927A027D
S1131D0008950E942801892B49F00E94A60181E0D0
S1131D1090E090937B0280937A0208950E94570189
S1131D20892B09F48BC00E94A60180910601909131
S1131D3007010196909307018093060104970CF420
S1131D407DC081E090E0909307018093060108959F
S1131D5082309105F1F52091780230917902213099
S1131D603105B9F50E946C00892BA9F00E94A601E7
S1131D7010927F0210927E021092790210927802E1
S1131D800E942C041092830010928200109273021D
S1131D901092720208950E94CA00892B09F44EC061
S1131DA00E94A60182E090E09093790280937802E9
S1131DB080918C0290918D029093BB028093BA0221
S1131DC080918A0290918B029093B9028093B80219
S1131DD00895029799F5809178029091790202977B
S1131DE069F50E946C00892B69F00E94A60110928B
S1131DF07F0210927E0210927902109278020C9463
S1131E002C0408950E94CA00892BC1F00E94A601E7
S1131E1081E090E090937902809378028091BA02F5
S1131E209091BB0290938D0280938C028091B802B2
S1131E309091B90290938B0280938A0208950E9434
S1131E4066000E945C060E9425040E9486010E948E
S1131E50F3016DDD78940E94920172DD13DC0E941F
S1131E60A0060E940B020E94B501F5CF97FB072E36
S1131E7016F4009406D077FD08D00BD007FC05D0EB
S1131E803EF4909581959F4F0895709561957F4F8D
S1131E900895AA1BBB1B51E107C0AA1FBB1FA617AD
S1131EA0B70710F0A61BB70B881F991F5A95A9F7FF
S1131EB080959095BC01CD0108950F931F93CF9306
S1131EC0DF93CDB7DEB72E970FB6F894DEBF0FBE03
S1131ED0CDBF0D891E8986E08C831A8309838FEF19
S1131EE09FE79E838D83AE01475E5F4F6F89788D38
S1131EF0CE01019610D0EF81F885E00FF11F10821A
S1131F002E960FB6F894DEBF0FBECDBFDF91CF91F2
S1131F101F910F9108952F923F924F925F926F926B
S1131F207F928F929F92AF92BF92CF92DF92EF9265
S1131F30FF920F931F93CF93DF93CDB7DEB72B9709
S1131F400FB6F894DEBF0FBECDBF6C017B018A01D2
S1131F50FC0117821682838181FFBFC1CE010196E5
S1131F603C01F6019381F70193FD859193FF8191E3
S1131F707F01882309F4ADC1853239F493FD85913D
S1131F8093FF81917F01853221F4B60190E0D6D18F
S1131F90E8CF912C212C312CFFE1F315D8F08B32B2
S1131FA079F038F4803279F08332A1F4232D206162
S1131FB01DC08D3261F0803369F4232D216016C079
S1131FC0832D8260382EE32DE4603E2E2AC0F32D4B
S1131FD0F8601DC037FC2DC020ED280F2A3040F0DA
S1131FE08E32B9F436FC75C1232D2064322E19C00B
S1131FF036FE06C08AE0989E200D1124922E11C050
S1132000EAE02E9E200D1124222EF32DF0623F2EA5
S113201008C08C3621F4832D8068382E02C088369F
S113202041F4F70193FD859193FF81917F01811123
S1132030B3CF982F9F7D9554933028F40C5F1F4F96
S11320409FE399830DC0833631F0833771F0833574
S113205009F055C020C0F801808189830E5F1F4FAD
S113206088248394912C530112C02801F2E04F0E6E
S1132070511CF801A080B18036FE03C0692D70E0C8
S113208002C06FEF7FEFC5014ED14C018201F32DE9
S1132090FF773F2E15C0280122E0420E511CF801A3
S11320A0A080B18036FE03C0692D70E002C06FEFDE
S11320B07FEFC5012DD14C01F32DF0683F2E820135
S11320C033FC19C0822D90E088169906A0F4B6015D
S11320D080E290E033D12A94F5CFF50137FC859165
S11320E037FE81915F01B60190E028D121102A9436
S11320F021E0821A91088114910479F7E1C08436B1
S113210011F0893639F5F80137FE07C06081718115
S1132110828193810C5F1F4F08C060817181072EFB
S1132120000C880B990B0E5F1F4FF32DFF763F2E8B
S113213097FF09C090958095709561957F4F8F4F5B
S11321409F4FF0683F2E2AE030E0A30133D1882E60
S1132150861844C0853731F4232D2F7EB22E2AE011
S113216030E025C0932D997FB92E8F36C1F018F435
S1132170883579F0AEC0803719F0883721F0A9C0CE
S1132180E92FE061BE2EB4FE0DC0FB2DF460BF2E1E
S113219009C034FE0AC0292F2660B22E06C028E0EA
S11321A030E005C020E130E002C020E132E0F80177
S11321B0B7FE07C060817181828193810C5F1F4FDC
S11321C006C06081718180E090E00E5F1F4FA30123
S11321D0F1D0882E8618FB2DFF773F2E36FE0DC0DA
S11321E0232D2E7FA22E891458F434FE0BC032FC0A
S11321F009C0832D8E7EA82E05C0B82CA32C03C045
S1132200B82C01C0B92CA4FE0FC0FE01E80DF11DCD
S11322108081803321F49A2D997EA92E09C0A2FED3
S113222006C0B394B39404C08A2D867809F0B3949D
S1132230A3FC10C0A0FE06C0B21480F4280C922C9B
S11322409B180DC0B21458F4B60180E290E076D029
S1132250B394F8CFB21418F42B1802C0982C212C84
S1132260A4FE0FC0B60180E390E068D0A2FE16C0C1
S1132270A1FC03C088E790E002C088E590E0B601C5
S11322800CC08A2D867851F0A1FE02C08BE201C0F9
S113229080E2A7FC8DE2B60190E050D0891430F4BE
S11322A0B60180E390E04AD09A94F8CF8A94F3017F
S11322B0E80DF11D8081B60190E040D08110F6CF89
S11322C0222009F44ECEB60180E290E037D02A9461
S11322D0F7CFF6018681978102C08FEF9FEF2B968F
S11322E00FB6F894DEBF0FBECDBFDF91CF911F9123
S11322F00F91FF90EF90DF90CF90BF90AF909F90A1
S11323008F907F906F905F904F903F902F900895A3
S1132310FC010590615070400110D8F780959095AC
S11323208E0F9F1F0895FC016150704001900110B1
S1132330D8F7809590958E0F9F1F08950F931F9344
S1132340CF93DF93FB01238121FD03C08FEF9FEF28
S11323502CC022FF16C04681578124813581421743
S1132360530744F4A081B1819D012F5F3F4F318316
S113237020838C93268137812F5F3F4F37832683B9
S113238014C08B01EC01FB010084F185E02D09955B
S1132390892BE1F6D80116968D919C911797019699
S11323A017969C938E931697CE01DF91CF911F9130
S11323B00F910895FA01AA27283051F1203181F1B3
S11323C0E8946F936E7F6E5F7F4F8F4F9F4FAF4F39
S11323D0B1E03ED0B4E03CD0670F781F891F9A1F4C
S11323E0A11D680F791F8A1F911DA11D6A0F711D00
S11323F0811D911DA11D20D009F468943F912AE00C
S1132400269F11243019305D3193DEF6CF010895F3
S1132410462F4770405D4193B3E00FD0C9F7F6CF24
S1132420462F4F70405D4A3318F0495D31FD4052EC
S1132430419302D0A9F7EACFB4E0A6959795879582
S113244077956795BA95C9F7009761057105089561
S11324509B01AC010A2E069457954795379527950D
S1132460BA95C9F7620F731F841F951FA01D0895A5
S1072470F894FFCF0A
S113247405000F00050001003F065B4F666D7D27D4
S11324847F6757617368696E6720204D616368696B
S11324946E6500507265737320506F7765722042C5
S11324A4544E20004D4F4445203A205374616E64C9
S11324B461726420004D4F4445203A2053454C46F4
S11324C4205741534800576173682054696D65204F
S11324D43A2020256420200052696E7365205469D3
S11324E46D65203A2025642020005370696E204CC9
S11324F46576656C3A204C4F5720005370696E2002
S11325044C6576656C3A204D494420005370696EDD
S1132514204C6576656C3A20484947480020535955
S11325245354454D2052554E4E494E472000576151
S11325347368204C6F6164696E672E2E2E200057D9
S1132544617368696E672E2E2E2E7761697420007C
S113255452696E7365204C6F6164696E672E2E2018
S11325640052696E73696E672E2E2E2E776169741C
S11325742020202020005370696E6E696E67204C01
S11325846F6164696E672E2E2E2E20005370696E5F
S11325946E696E672E2E2E2E776169740020576142
S11325A4736820436F6D706C65746520212121006C
S11325B45370696E20436F6D706C657465212121BD
S11325C4002020202050415553452E2E2E2020201B
S10725D4202020009F
S9030000FC
